:0400000002001132B7
:03000B000200D51B
:10006A00E4F526F527752839752930D203D204D24A
:10007A0005D206E4F52AF52BE4F52CF52DF52EF537
:10008A002F753001F531F532F533F534F535F5369E
:10009A00F537F538F539F53A752200752300C200AF
:0700AA00C201C20202000EB8
:03000E00020708DE
:1000B100AE82AF837C007D00C3EC9EED9F50147A2D
:1000C100787B001ABAFF011BEA4B70F70CBC00E801
:1000D1000D80E522C0E0C007C006C0D075D0007514
:1000E1008CFC758A6630001E0526E4B526020527BC
:1000F100AE26AF27C3EE9464EF9400400BB2A6E4A2
:10010100F526F5278002D2A6D0D0D006D007D0E0C0
:1001110032A201B392A7E522B40100B39208E433FD
:1001210024FF92A07401B52203D38001C3B39208C6
:10013100E43324FF92A17402B52203D38001C3B337
:100141009208E43324FF92A27403B52203D3800101
:10015100C3B39208E43324FF92A37404B52203D3FA
:100161008001C3B39208E43324FF92A47405B5223D
:1001710003D38001C3B39208E43324FF92A0740631
:10018100B52203D38001C3B39208E43324FF9295CF
:100191007407B52203D38001C3B39208E43324FF6B
:1001A10092A17408B52203D38001C3B39208E4334A
:1001B10024FF92A27409B52203D38001C3B392082C
:1001C100E43324FF92A3740AB52203D38001C3B39D
:1001D1009208E43324FF92A422AC28AD297E007F4B
:1001E10000C004C005C006C007904E6D75F0C6740E
:1001F1004112089CAC82AD83AEF0FFE58124FCF591
:100201008174392CFC74303DFDE43EFEE43FFFE493
:10021100C0E07480C0E0E4C0E0C0E08C828D838ED9
:10022100F0EF1207D6AC82AD83E58124FCF5818C19
:10023100288D2985288222A2B29208200301B34089
:100241001A900014C0211200B1D021A2B2200801DD
:10025100B35008A2089203A208B322C322A2B39208
:1002610008200401B3401A900014C0211200B1D03B
:1002710021A2B3200801B35008A2089204A208B336
:1002810022C322A2B49208200501B3401A9000149F
:10029100C0211200B1D021A2B4200801B35008A29C
:1002A100089205A208B322C322A2B5920820060132
:1002B100B3401A900014C0211200B1D021A2B52080
:1002C1000801B35008A2089206A208B322C322056E
:1002D1002AE4B52A02052BC3E52A9524E52B9525A9
:1002E1004007E4F52AF52BB2B022C0088581080544
:1002F100810581A201E433FE7F00C006C0079000A2
:10030100061207B4AE82AF8315811581EE2492FEE9
:10031100EF3409FF8E828F83E493FCA3E493FD8E77
:10032100828F83A3A3A80808E493F6A3E49308F6B5
:10033100E52224F55003020702E522240B83F5820E
:10034100E522240F83F583E4736091C11D7DAD2007
:1003510077E8228B0303030404040505050606C39D
:10036100EC9524ED9525501DE52390099E93FF7B87
:1003710000AE24AD258F02EEC39AFAED9BFB8A24D1
:100381008B25020702A80808862408862502070291
:10039100A80808C3E52496E5250896501CE5239096
:1003A100099E93FF7B00AE24AD258F02EA2EFAEB66
:1003B1003DFB8A248B250207028C248D250207022E
:1003C10030022EA80808C3E52496E5250896501C9E
:1003D100E52390099E93FF7B00AE24AD258F02EAB1
:1003E1002EFAEB3DFB8A248B25020702C20202078B
:1003F10002C3EC9524ED9525501DE52390099E93AC
:10040100FF7B00AE24AD258F02EEC39AFAED9BFB74
:100411008A248B25020702D202020702C005C0040A
:100421001201DAAB82D004D005BB140040030207ED
:1004310002C005C0041201DAAB82D004D005A808BD
:1004410008E6C39CFA08E69DFF0ABA00010F7E0088
:10045100C005C004C002C0078B828E83120949AE59
:1004610082AF8315811581D004D0058C028D03EEF6
:100471002AFEEF3BFF8E248F25020702052CE4B5EF
:100481002C02052DAE2CAF2DC3EE94F4EF94014058
:1004910005E4F52CF52DAE2CAF2DC3EE9432EF947F
:1004A100009208E43324FF92B0020702052EE4B55E
:1004B1002E02052FAE2EAF2FC3EE9464EF940050A1
:1004C10003020702E4F52EF52FE52390099E93FF21
:1004D1007E00AA24AB25EF2AFAEE3BFBEAC39CFA85
:1004E100EB9DFBA80808E6C39CFE08E69DFF0EBE37
:1004F10000010F8A828B83C005C004C006C00712A9
:100501000949AE82AF8315811581D004D0058C02D3
:100511008D03EE2AFEEF3BFF8E248F25020702E5B5
:100521002390099E93FF7E00C005C004C007C0064A
:100531008530828531831207B4AE82AF8315811570
:1005410081D004D005EE2524F524EF3525F525C30A
:10055100EC9524ED95255010A80808C3E52496E5EF
:100561002508965003020702C3E49530F530E4955F
:1005710031F5310207020532E4B532020533AE32FC
:10058100AF33C3EE9458EF94024005E4F532F533EE
:10059100AE32AF33C3EE9464EF940050128C028DEF
:1005A1000374022AFAE43BFB8A248B25020702C367
:1005B100EE9496EF9400500BA8080886240886252F
:1005C100020702C3EE94FAEF940050108C068D07D7
:1005D1000EBE00010F8E248F25020702A80808868F
:1005E100240886250207020534E4B534020535AE38
:1005F10034AF35C3EE9464EF94005003020702E474
:10060100F534F535ECB5240EEDB5250AA8080886B4
:100611000608860780048C068D078E248F25020725
:1006210002E536703CC3EC9524ED9525502DE5236C
:1006310090099E93FF7E00C007C006900003120739
:10064100B4AE82AF8315811581AA24AB25EAC39E7E
:10065100FAEB9FFB8A248B250207027536010207FC
:10066100020537E4B537020538AE37AF38C3742C0D
:100671009E74019F4003020702E4F537F538F53611
:10068100A80808862408862580770539E4B539024B
:10069100053AAE39AF3AC3EE9414EF94004062E4E8
:1006A100F539F53AC005C0041201DAAF827E007453
:1006B10005C0E0E4C0E08F828E8312090CAE82AFE8
:1006C1008315811581D004D005EE24FEFEEF34FFA1
:1006D100FFAA24AB25EE2AFAEF3BFB8A248B25C324
:1006E100E5249CE5259D50048C248D25A80808C38C
:1006F100E6952408E695255008A80808862408866A
:1007010025850881D0082275B0FF75A0FF7590FF7F
:100711007580FF758901758CFC758A66D2A9D28CAA
:10072100D2AFC201900996E493F524A3E493F52591
:10073100120112120238500AB200200002C2B01295
:10074100011212025E500E052274F5252250037526
:100751002200120112120284500E052374FB25237C
:1007610050037523001201121202AA5037B201A2DE
:1007710001E433FE7F00C006C0079000061207B4F3
:10078100AE82AF8315811581EE2492FEEF3409FF0D
:100791008E828F83A3A3A3A3E493F524A3E493F50B
:1007A100251201122000030207341202D01202EBBB
:0307B10002073408
:10099200190032002500090012000D0001020305B2
:0109A200084C
:06004000E478FFF6D8FD94
:10001E007900E94400601B7A009009A3780075A06E
:10002E0080E493F2A308B8000205A0D9F4DAF275C1
:02003E00A0FF21
:1007B40074FE2581F8E68582F0A4C0E08582F018F5
:1007C400E6A4F582D0E025F0C58386F0A42583F560
:0207D40083227E
:100046007800E84400600A790075A080E4F309D8D6
:10005600FC7800E84400600C7900908000E4F0A38E
:04006600D8FCD9FAEF
:1007D600F9C2D530E715D2D5E4C39582F582E49502
:1007E60083F583E495F0F5F0E499F9E58124FBF8C7
:1007F600860208860308860408E6FD30E70DE4C392
:100806009AFAE49BFBE49CFCE49DFD12083B30D580
:1008160012E4C39582F582E49583F583E495F0F5B9
:10082600F0E49922F9E58124FBF88602088603089C
:1008360086040886057800EA4B4C4D60587800C35C
:1008460008ED20E727EA25E0FAEB33FBEC33FCED75
:1008560033FDE5829AE5839BE5F09CE99D50E1C373
:10086600ED13FDEC13FCEB13FBEA13FAE5829AE5B4
:10087600839BFEE5F09CFFE99D400AF98FF08E838D
:10088600E5829AF582C3ED13FDEC13FCEB13FBEA4C
:0608960013FAD8D8E92294
:0D00110075813A12098EE582600302000E2F
:10089C00AAF0FB74FB2581F8E58286F0A9F008A488
:1008AC00FCADF0E58389F0A42DFDE435F0FEE58286
:1008BC0086F0A42DFDE5F03EFEE433FFEA89F0A4BA
:1008CC002EFEE5F03FFFE58386F0A42EFEE5F03F1B
:1008DC00FFE5820886F0A42EFEE5F03FFFEB89F0E1
:1008EC00A42FFFE58386F0A42FFFEA1886F0A42F2F
:1008FC00FFE582080886F0A42F8EF08D838C82226F
:10090C00C2D5E58330E70DD2D5E4C39582F582E4F8
:10091C009583F583E58124FEF8E630E70918E4C3F6
:10092C0096F6E40896F6860118860012095330D51F
:10093C000BE4C39582F582E49583F58322E581244B
:10094C00FEF88601188600E84960367A01E825E051
:10095C00F8E933400EF9E58298E5839940030A8063
:10096C00ECC3E913F9E813F8C3E58298F5F0E583D5
:10097C00994005F58385F082C3E913F9E813F8DA99
:06098C00E7227582002243
:00000001FF
